{
  "contractName": "TokenFarm",
  "abi": [
    {
      "inputs": [
        {
          "internalType": "contract StellarToken",
          "name": "_stellarToken",
          "type": "address"
        },
        {
          "internalType": "contract JamToken",
          "name": "_jamToken",
          "type": "address"
        }
      ],
      "stateMutability": "nonpayable",
      "type": "constructor"
    },
    {
      "inputs": [
        {
          "internalType": "address",
          "name": "",
          "type": "address"
        }
      ],
      "name": "hasStaked",
      "outputs": [
        {
          "internalType": "bool",
          "name": "",
          "type": "bool"
        }
      ],
      "stateMutability": "view",
      "type": "function",
      "constant": true
    },
    {
      "inputs": [
        {
          "internalType": "address",
          "name": "",
          "type": "address"
        }
      ],
      "name": "isStaking",
      "outputs": [
        {
          "internalType": "bool",
          "name": "",
          "type": "bool"
        }
      ],
      "stateMutability": "view",
      "type": "function",
      "constant": true
    },
    {
      "inputs": [],
      "name": "jamToken",
      "outputs": [
        {
          "internalType": "contract JamToken",
          "name": "",
          "type": "address"
        }
      ],
      "stateMutability": "view",
      "type": "function",
      "constant": true
    },
    {
      "inputs": [],
      "name": "name",
      "outputs": [
        {
          "internalType": "string",
          "name": "",
          "type": "string"
        }
      ],
      "stateMutability": "view",
      "type": "function",
      "constant": true
    },
    {
      "inputs": [],
      "name": "owner",
      "outputs": [
        {
          "internalType": "address",
          "name": "",
          "type": "address"
        }
      ],
      "stateMutability": "view",
      "type": "function",
      "constant": true
    },
    {
      "inputs": [
        {
          "internalType": "uint256",
          "name": "",
          "type": "uint256"
        }
      ],
      "name": "stakers",
      "outputs": [
        {
          "internalType": "address",
          "name": "",
          "type": "address"
        }
      ],
      "stateMutability": "view",
      "type": "function",
      "constant": true
    },
    {
      "inputs": [
        {
          "internalType": "address",
          "name": "",
          "type": "address"
        }
      ],
      "name": "stakingBalance",
      "outputs": [
        {
          "internalType": "uint256",
          "name": "",
          "type": "uint256"
        }
      ],
      "stateMutability": "view",
      "type": "function",
      "constant": true
    },
    {
      "inputs": [],
      "name": "stellarToken",
      "outputs": [
        {
          "internalType": "contract StellarToken",
          "name": "",
          "type": "address"
        }
      ],
      "stateMutability": "view",
      "type": "function",
      "constant": true
    },
    {
      "inputs": [
        {
          "internalType": "uint256",
          "name": "_amount",
          "type": "uint256"
        }
      ],
      "name": "stakeTokens",
      "outputs": [],
      "stateMutability": "nonpayable",
      "type": "function"
    },
    {
      "inputs": [],
      "name": "unStakeTokens",
      "outputs": [],
      "stateMutability": "nonpayable",
      "type": "function"
    },
    {
      "inputs": [],
      "name": "issueTokens",
      "outputs": [],
      "stateMutability": "nonpayable",
      "type": "function"
    }
  ],
  "bytecode": "0x60806040526040518060400160405280601281526020017f5374656c6c617220546f6b656e204661726d0000000000000000000000000000815250600090805190602001906200005192919062000150565b503480156200005f57600080fd5b506040516200144d3803806200144d83398181016040528101906200008591906200022e565b81600360006101000a81548173ffffffffffffffffffffffffffffffffffffffff021916908373ffffffffffffffffffffffffffffffffffffffff16021790555080600260006101000a81548173ffffffffffffffffffffffffffffffffffffffff021916908373ffffffffffffffffffffffffffffffffffffffff16021790555033600160006101000a81548173ffffffffffffffffffffffffffffffffffffffff021916908373ffffffffffffffffffffffffffffffffffffffff160217905550505062000364565b8280546200015e90620002cb565b90600052602060002090601f016020900481019282620001825760008555620001ce565b82601f106200019d57805160ff1916838001178555620001ce565b82800160010185558215620001ce579182015b82811115620001cd578251825591602001919060010190620001b0565b5b509050620001dd9190620001e1565b5090565b5b80821115620001fc576000816000905550600101620001e2565b5090565b600081519050620002118162000330565b92915050565b60008151905062000228816200034a565b92915050565b600080604083850312156200024257600080fd5b6000620002528582860162000217565b9250506020620002658582860162000200565b9150509250929050565b60006200027c82620002ab565b9050919050565b600062000290826200026f565b9050919050565b6000620002a4826200026f565b9050919050565b600073ffffffffffffffffffffffffffffffffffffffff82169050919050565b60006002820490506001821680620002e457607f821691505b60208210811415620002fb57620002fa62000301565b5b50919050565b7f4e487b7100000000000000000000000000000000000000000000000000000000600052602260045260246000fd5b6200033b8162000283565b81146200034757600080fd5b50565b620003558162000297565b81146200036157600080fd5b50565b6110d980620003746000396000f3fe608060405234801561001057600080fd5b50600436106100a95760003560e01c80637547c7a3116100715780637547c7a3146101545780637896bf1d146101705780638da5cb5b1461017a578063c93c8f3414610198578063f416d760146101c8578063fd5e6dd1146101e6576100a9565b806306fdde03146100ae5780630f141533146100cc57806345bc78ab146100ea57806360ab58521461011a5780636f49712b14610124575b600080fd5b6100b6610216565b6040516100c39190610d01565b60405180910390f35b6100d46102a4565b6040516100e19190610ce6565b60405180910390f35b61010460048036038101906100ff9190610acd565b6102ca565b6040516101119190610d83565b60405180910390f35b6101226102e2565b005b61013e60048036038101906101399190610acd565b610501565b60405161014b9190610cb0565b60405180910390f35b61016e60048036038101906101699190610b1f565b610521565b005b61017861080c565b005b6101826109e3565b60405161018f9190610c35565b60405180910390f35b6101b260048036038101906101ad9190610acd565b610a09565b6040516101bf9190610cb0565b60405180910390f35b6101d0610a29565b6040516101dd9190610ccb565b60405180910390f35b61020060048036038101906101fb9190610b1f565b610a4f565b60405161020d9190610c35565b60405180910390f35b6000805461022390610ed3565b80601f016020809104026020016040519081016040528092919081815260200182805461024f90610ed3565b801561029c5780601f106102715761010080835404028352916020019161029c565b820191906000526020600020905b81548152906001019060200180831161027f57829003601f168201915b505050505081565b600360009054906101000a900473ffffffffffffffffffffffffffffffffffffffff1681565b60056020528060005260406000206000915090505481565b600160009054906101000a900473ffffffffffffffffffffffffffffffffffffffff1673ffffffffffffffffffffffffffffffffffffffff163373ffffffffffffffffffffffffffffffffffffffff1614610372576040517f08c379a000000000000000000000000000000000000000000000000000000000815260040161036990610d43565b60405180910390fd5b60005b6004805490508110156104fe576000600482815481106103be577f4e487b7100000000000000000000000000000000000000000000000000000000600052603260045260246000fd5b9060005260206000200160009054906101000a900473ffffffffffffffffffffffffffffffffffffffff1690506000600560008373ffffffffffffffffffffffffffffffffffffffff1673ffffffffffffffffffffffffffffffffffffffff16815260200190815260200160002054905060008111156104e957600360009054906101000a900473ffffffffffffffffffffffffffffffffffffffff1673ffffffffffffffffffffffffffffffffffffffff1663a9059cbb83836040518363ffffffff1660e01b8152600401610495929190610c87565b602060405180830381600087803b1580156104af57600080fd5b505af11580156104c3573d6000803e3d6000fd5b505050506040513d601f19601f820116820180604052508101906104e79190610af6565b505b505080806104f690610f05565b915050610375565b50565b60076020528060005260406000206000915054906101000a900460ff1681565b60008111610564576040517f08c379a000000000000000000000000000000000000000000000000000000000815260040161055b90610d63565b60405180910390fd5b600260009054906101000a900473ffffffffffffffffffffffffffffffffffffffff1673ffffffffffffffffffffffffffffffffffffffff166323b872dd3330846040518463ffffffff1660e01b81526004016105c393929190610c50565b602060405180830381600087803b1580156105dd57600080fd5b505af11580156105f1573d6000803e3d6000fd5b505050506040513d601f19601f820116820180604052508101906106159190610af6565b5080600560003373ffffffffffffffffffffffffffffffffffffffff1673ffffffffffffffffffffffffffffffffffffffff168152602001908152602001600020546106619190610dba565b600560003373ffffffffffffffffffffffffffffffffffffffff1673ffffffffffffffffffffffffffffffffffffffff16815260200190815260200160002081905550600660003373ffffffffffffffffffffffffffffffffffffffff1673ffffffffffffffffffffffffffffffffffffffff16815260200190815260200160002060009054906101000a900460ff16610759576004339080600181540180825580915050600190039060005260206000200160009091909190916101000a81548173ffffffffffffffffffffffffffffffffffffffff021916908373ffffffffffffffffffffffffffffffffffffffff1602179055505b6001600760003373ffffffffffffffffffffffffffffffffffffffff1673ffffffffffffffffffffffffffffffffffffffff16815260200190815260200160002060006101000a81548160ff0219169083151502179055506001600660003373ffffffffffffffffffffffffffffffffffffffff1673ffffffffffffffffffffffffffffffffffffffff16815260200190815260200160002060006101000a81548160ff02191690831515021790555050565b6000600560003373ffffffffffffffffffffffffffffffffffffffff1673ffffffffffffffffffffffffffffffffffffffff16815260200190815260200160002054905060008111610893576040517f08c379a000000000000000000000000000000000000000000000000000000000815260040161088a90610d23565b60405180910390fd5b600260009054906101000a900473ffffffffffffffffffffffffffffffffffffffff1673ffffffffffffffffffffffffffffffffffffffff1663a9059cbb33836040518363ffffffff1660e01b81526004016108f0929190610c87565b602060405180830381600087803b15801561090a57600080fd5b505af115801561091e573d6000803e3d6000fd5b505050506040513d601f19601f820116820180604052508101906109429190610af6565b506000600560003373ffffffffffffffffffffffffffffffffffffffff1673ffffffffffffffffffffffffffffffffffffffff168152602001908152602001600020819055506000600760003373ffffffffffffffffffffffffffffffffffffffff1673ffffffffffffffffffffffffffffffffffffffff16815260200190815260200160002060006101000a81548160ff02191690831515021790555050565b600160009054906101000a900473ffffffffffffffffffffffffffffffffffffffff1681565b60066020528060005260406000206000915054906101000a900460ff1681565b600260009054906101000a900473ffffffffffffffffffffffffffffffffffffffff1681565b60048181548110610a5f57600080fd5b906000526020600020016000915054906101000a900473ffffffffffffffffffffffffffffffffffffffff1681565b600081359050610a9d8161105e565b92915050565b600081519050610ab281611075565b92915050565b600081359050610ac78161108c565b92915050565b600060208284031215610adf57600080fd5b6000610aed84828501610a8e565b91505092915050565b600060208284031215610b0857600080fd5b6000610b1684828501610aa3565b91505092915050565b600060208284031215610b3157600080fd5b6000610b3f84828501610ab8565b91505092915050565b610b5181610e10565b82525050565b610b6081610e22565b82525050565b610b6f81610e58565b82525050565b610b7e81610e7c565b82525050565b6000610b8f82610d9e565b610b998185610da9565b9350610ba9818560208601610ea0565b610bb281610fac565b840191505092915050565b6000610bca601c83610da9565b9150610bd582610fbd565b602082019050919050565b6000610bed601083610da9565b9150610bf882610fe6565b602082019050919050565b6000610c10602283610da9565b9150610c1b8261100f565b604082019050919050565b610c2f81610e4e565b82525050565b6000602082019050610c4a6000830184610b48565b92915050565b6000606082019050610c656000830186610b48565b610c726020830185610b48565b610c7f6040830184610c26565b949350505050565b6000604082019050610c9c6000830185610b48565b610ca96020830184610c26565b9392505050565b6000602082019050610cc56000830184610b57565b92915050565b6000602082019050610ce06000830184610b66565b92915050565b6000602082019050610cfb6000830184610b75565b92915050565b60006020820190508181036000830152610d1b8184610b84565b905092915050565b60006020820190508181036000830152610d3c81610bbd565b9050919050565b60006020820190508181036000830152610d5c81610be0565b9050919050565b60006020820190508181036000830152610d7c81610c03565b9050919050565b6000602082019050610d986000830184610c26565b92915050565b600081519050919050565b600082825260208201905092915050565b6000610dc582610e4e565b9150610dd083610e4e565b9250827fffffffffffffffffffffffffffffffffffffffffffffffffffffffffffffffff03821115610e0557610e04610f4e565b5b828201905092915050565b6000610e1b82610e2e565b9050919050565b60008115159050919050565b600073ffffffffffffffffffffffffffffffffffffffff82169050919050565b6000819050919050565b6000610e6382610e6a565b9050919050565b6000610e7582610e2e565b9050919050565b6000610e8782610e8e565b9050919050565b6000610e9982610e2e565b9050919050565b60005b83811015610ebe578082015181840152602081019050610ea3565b83811115610ecd576000848401525b50505050565b60006002820490506001821680610eeb57607f821691505b60208210811415610eff57610efe610f7d565b5b50919050565b6000610f1082610e4e565b91507fffffffffffffffffffffffffffffffffffffffffffffffffffffffffffffffff821415610f4357610f42610f4e565b5b600182019050919050565b7f4e487b7100000000000000000000000000000000000000000000000000000000600052601160045260246000fd5b7f4e487b7100000000000000000000000000000000000000000000000000000000600052602260045260246000fd5b6000601f19601f8301169050919050565b7f456c2062616c616e63652064656c207374616c6b696e67206573203000000000600082015250565b7f4e6f206572657320656c206f776e657200000000000000000000000000000000600082015250565b7f4c612063616e7469646164206e6f20707565646520736572206d656e6f72206160008201527f2030000000000000000000000000000000000000000000000000000000000000602082015250565b61106781610e10565b811461107257600080fd5b50565b61107e81610e22565b811461108957600080fd5b50565b61109581610e4e565b81146110a057600080fd5b5056fea26469706673582212205ea3f4a14e96587c2b37546d057e334f6a474d1b133e74884bef2a7dfcc6e72b64736f6c63430008040033",
  "immutableReferences": {},
  "source": "//Este contrato gestionara todas estas acciones\n\n//SPDX-License-Identifier: MIT\n//Owner: 0x5B38Da6a701c568545dCfcB03FcB875f56beddC4\n//Usuario: 0xAb8483F64d9C6d1EcF9b849Ae677dD3315835cb2\npragma solidity ^0.8.4;\n\nimport \"./JamToken.sol\";\nimport \"./StellarToken.sol\";\n\ncontract TokenFarm {\n\n    //Declaraciones iniciales\n    string public name = \"Stellar Token Farm\";\n    address public owner;\n    JamToken public jamToken;\n    StellarToken public stellarToken;\n\n    //Estrucutra de datos\n    address [] public stakers;\n    mapping(address => uint) public stakingBalance;\n    mapping(address => bool) public hasStaked;\n    mapping(address => bool) public isStaking;\n\n    //Constructor\n    constructor(StellarToken _stellarToken, JamToken _jamToken) {\n        stellarToken = _stellarToken; //Enviar el contrato por parametro\n        jamToken = _jamToken;\n        owner = msg.sender;\n    }\n\n    //Stake de tokens\n    function stakeTokens(uint _amount) public {\n        //Se requiere una cantidad superior a 0\n        require(_amount > 0, \"La cantidad no puede ser menor a 0\");\n        //Transferir tokens JAM al smart contract principal;\n        jamToken.transferFrom(msg.sender, address(this), _amount); //El address(this) seanala a este SC\n        //Actualizar el saldo del staking\n        stakingBalance[msg.sender] = stakingBalance[msg.sender] + _amount;\n        //Gudar el staker\n        if(!hasStaked[msg.sender]){\n            stakers.push(msg.sender);\n        }\n        //Actualizar el estado del staking\n        isStaking[msg.sender] = true;\n        hasStaked[msg.sender] = true;\n    }\n\n    //Quitar el staking de los tokens\n    function unStakeTokens() public {\n        //Saldo del stalking de un usuario\n        uint balance = stakingBalance[msg.sender];\n        //Se requiere una cantidad superior a 0\n        require(balance > 0, \"El balance del stalking es 0\");\n        //Transferencia de los tokens al usuario\n        jamToken.transfer(msg.sender, balance);\n        //Resetea el balance del staking del usuario\n        stakingBalance[msg.sender] = 0;\n        //Actualizar el estado del staking\n        isStaking[msg.sender] = false;\n    }\n\n    //Emision de tokens (recomepnsa)\n    function issueTokens() public {\n        //Unicamente ejecutable por el owner\n        require(msg.sender == owner, \"No eres el owner\");\n        //Emitir tokens a todos los stakers\n        for(uint i=0; i < stakers.length; i++){\n            address recipient = stakers[i];\n            uint balance = stakingBalance[recipient];\n            if(balance > 0){\n                stellarToken.transfer(recipient, balance);\n            }\n        }\n    }\n}",
  "sourcePath": "/Users/javiergomez/Downloads/DEFI/src/contracts/TokenFarm.sol",
  "compiler": {
    "name": "solc",
    "version": "0.8.4+commit.c7e474f2.Emscripten.clang"
  },
  "schemaVersion": "3.4.7",
  "updatedAt": "2022-08-31T18:33:41.686Z",
  "networkType": "ethereum",
  "devdoc": {
    "kind": "dev",
    "methods": {},
    "version": 1
  },
  "userdoc": {
    "kind": "user",
    "methods": {},
    "version": 1
  }
}